:020000040800F2
:10000000980C002439030008D73C00087F3800080A
:10001000D53C0008930500088B5300080000000041
:100020000000000000000000000000001D3F00086C
:100030009505000800000000D93C00081F3F00089B
:100040005303000853030008530300085303000838
:100050005303000853030008530300085303000828
:100060005303000853030008530300085303000818
:100070005303000853030008530300085303000808
:1000800053030008530300085303000853030008F8
:10009000530300085303000853030008D508000861
:1000A00053030008530300085303000853030008D8
:1000B00053030008530300085303000853030008C8
:1000C00053030008530300085303000853030008B8
:1000D000530300085303000853030008AD50000801
:1000E000CD08000853030008000000005303000877
:1000F0005303000853030008530300085303000888
:100100005303000853030008530300085303000877
:100110005303000853030008530300085303000867
:100120005303000853030008530300085303000857
:100130005303000853030008530300085303000847
:1001400000000000000000000000000000000000AF
:100150005303000853030008530300085303000827
:100160005303000853030008530300085303000817
:100170005303000853030008530300080000000065
:1001800053030008530300085303000853030008F7
:1001900053030008530300085303000853030008E7
:1001A00053030008530300085303000853030008D7
:1001B00053030008530300085303000853030008C7
:1001C00053030008530300085303000853030008B7
:1001D00053030008530300085303000853030008A7
:1001E0005303000853030008530300085303000897
:1001F0005303000853030008530300085303000887
:100200005303000853030008530300085303000876
:100210005303000853030008530300085303000866
:1002200053030008530300085303000800000000B4
:1002300053030008530300080000000053030008A4
:100240005303000853030008530300085303000836
:100250005303000853030008530300085303000826
:100260005303000853030008530300085303000816
:100270005303000853030008530300080000000064
:100280005303000853030008530300080000000054
:10029000000000005303000800F002F800F03CF8F2
:1002A0000AA090E8000C82448344AAF10107DA45D1
:1002B00001D100F031F8AFF2090EBAE80F0013F0E7
:1002C000010F18BFFB1A43F0010318476C540000DC
:1002D0008C540000103A24BF78C878C1FAD852076D
:1002E00024BF30C830C144BF04680C6070470000B0
:1002F0000023002400250026103A28BF78C1FBD82F
:10030000520728BF30C148BF0B6070471FB505F0CA
:10031000F1F91FBD10B510BD00F001F91146FFF74E
:10032000F5FF05F01BF900F01FF903B4FFF7F2FF2A
:1003300003BC00F027F9000009488047094800473E
:10034000FEE7FEE7FEE7FEE7FEE7FEE7FEE7FEE785
:10035000FEE7FEE704480549054A064B70470000E2
:10036000CD3F00089902000898060024980C00244C
:10037000980800249808002453EA020C00F06980D1
:100380002DE9F04B4FF00006002B1FBFB3FA83F5A9
:1003900003FA05F424FA05F65E4012BF1643B2FADA
:1003A00082F502FA05F4C5F120051EBF22FA05FC0C
:1003B00044EA0C04203556EA044C4FEA144418BFB2
:1003C000641C4FF000084FF00009904271EB030CE1
:1003D00039D3002919BFB1FA81F701FA07F6B0FA4B
:1003E00080F700FA07F6C7F120071EBF20FA07FCC6
:1003F00046EA0C062037B6FBF4FCA7EB0507103FD6
:1004000007F01F0BCBF120060CFA0BFB2CFA06F6BB
:1004100044BFB3460026202FA4BF5E464FF0000B1A
:100420005BEA060C08BF4FF0010B19EB0B09ABFBA5
:10043000027C48EB0608C01B06FB02CC0BFB03CC7E
:1004400071EB0C01C1E70B46024641464846BDE848
:10045000F08B13B54FF000004FF00001AFF30080B8
:10046000BDE81C40704710B5203AC0F00B80B1E8E1
:100470001850203AA0E81850B1E81850A0E81850D9
:10048000BFF4F5AF5FEA027C24BFB1E81850A0E8E2
:10049000185044BF18C918C0BDE810405FEA827CFC
:1004A00024BF51F8043B40F8043B08BF7047D20713
:1004B00028BF31F8023B48BF11F8012B28BF20F8B4
:1004C000023B48BF00F8012B70474FF0000200B517
:1004D000134694469646203922BFA0E80C50A0E867
:1004E0000C50B1F12001BFF4F7AF090728BFA0E815
:1004F0000C5048BF0CC05DF804EB890028BF40F8E1
:10050000042B08BF704748BF20F8022B11F0804F22
:1005100018BF00F8012B7047704770477047754649
:1005200000F02CF8AE4605006946534620F007005F
:10053000854618B020B5FFF70DFFBDE820404FF00D
:1005400000064FF000074FF000084FF0000B21F0BD
:100550000701AC46ACE8C009ACE8C009ACE8C0098A
:10056000ACE8C0098D46704710B50446AFF3008073
:100570002046BDE81040FFF7D8BE00000048704795
:100580003806002401491820ABBEFEE72600020011
:100590007047FEE7704770B5A2B0064600244FF4DE
:1005A000C36001258DF80F5002238DF81D406903AB
:1005B0008DF80E5009948DF81F400D9020208DF875
:1005C00004508DF8325042028DF8605006914FF081
:1005D00040518DF8384002948DF861408DF81C40F0
:1005E0008DF828408DF862408DF80C400B948DF802
:1005F0001E500F948DF8115012948DF840408DF8D4
:1006000031408DF8124014948DF8564017903046C2
:1006100016938DF8205005928DF854408DF8304097
:100620008DF81050009169468DF80D408DF85540B9
:1006300011948DF84C5000F075F81B9568058DF8F5
:1006400071404FF406718DF8685019948DF8804010
:100650008DF870401F908DF878401D9030468DF8D1
:100660008140219119A900F003F822B070BD00006B
:10067000F0B5026847F6020E274E4DF2010702F56B
:100680008052264DD1F800C01368254C23EA0E0392
:1006900043EA0C0313600B79026891F80CE002F551
:1006A0008052D1F808C01B0343EACE3343EA0C035F
:1006B000D2F804C02CEA070C4CEA030CC2F804C0C0
:1006C00002684F7B02F580520B6A43EA0747D2F873
:1006D000003133403B43C2F8003102680B7D02F524
:1006E000805291F81DC00F69D2F804611B0143EAE2
:1006F0000C332E403B431E43C2F8046100680B7F5D
:1007000000F580508A69D0F8081142EAC37221408E
:100710001143C0F80811F0BD00C0FEFFEFEFC0FFAD
:10072000FFFFC07FF0B50B790C7B0F688A68DB0692
:100730004D7B43EAC4533A438E7B1A43CF7B91F8F7
:1007400010C042EA855242EA4652BCF1000F42EA2A
:1007500007537CD000224C7C002C43EAC24278D064
:1007600000238E7C0D7F42EA43428F7FD1E905341E
:1007700042EA06424E7F1A43224342EA0532002FE4
:1007800042EAC62466D00022CD7F91F8203044EAA8
:100790008222002B42EA45227ED0002504684B6A63
:1007A00042EA052291F82870464D1A43CE6A236822
:1007B00042EA071232432B401343236091F83C2056
:1007C00091F8383091F8305091F83140520642EAB1
:1007D000036291F8326042EA854242EA4444BEB381
:1007E00000220368384E4F6B44EA02425C683A4389
:1007F00040F20F15344014435C60036891F8406088
:100800004C6CDA6844EA0624AA432243DA6091F881
:1008100054300A6D91F84C4042EA4302ECB3002494
:100820000368B1F848504FF60D76E7011C6F47EAB0
:1008300005452A43344014431C67026891F856303A
:1008400091F8555052F8904F43EA450303E02BE0EE
:1008500032E02BE02CE024F003041C431460026817
:100860008C6DD2F8003D23F072032343C2F8003DA3
:1008700091F86020CC6D1AB35FF00003026891F824
:10088000615091F8621044EA8310D2F8303D2C0197
:1008900044EAC101084301E00CE00FE023F07B01D2
:1008A0000143C2F8301DF0BD012254E7012358E78F
:1008B000012269E7012571E7012292E70124AFE7F0
:1008C0000123DBE7838004000080F8C04FF4006060
:1008D00000F0E0BC802010B500F0DCFCBDE810406A
:1008E0004FF4007000F0D6BC72B6FEE72DE9F84F69
:1008F000044600F003FE002C009008D094F8350068
:10090000022805D080216165002084F83400E3E0EE
:10091000C84DC84EC749183520683036DFF81883EF
:10092000DFF818938842DFF818A3DFF818B32ED049
:10093000A8422CD0B0422AD0404528D0484526D0E5
:10094000504524D0584522D0BE4A183290421ED07D
:10095000BD4A90421BD0BC4A1832904217D0BA4AC6
:100960003032904213D0B84A483290420FD0B64A43
:10097000603290420BD0B44A7832904207D0B24AEB
:100980009032904203D0B04AA832904209D1026816
:1009900022F01E0202602068426922F08002426159
:1009A00003E0026822F00E02026027688F42384698
:1009B0004DD0A8424BD0B04249D0404547D04845E1
:1009C00045D0504543D0584541D09E4A18329042B8
:1009D0003DD09D4A90423AD09B4A1832904236D040
:1009E000994A3032904232D0974A483290422ED0C3
:1009F000954A603290422AD0934A7832904226D06B
:100A0000914A9032904222D08F4AA83290421ED012
:100A10008E4A90421BD08D4A1432904217D08B4A96
:100A20002832904213D0894A3C3290420FD0874AF4
:100A3000503290420BD0854A6432904207D0834AAC
:100A40007832904203D0814A8C32974204D1206E92
:100A5000026822F48072026076492068884228D0B9
:100A6000A84226D0B04224D0404522D0484520D0CC
:100A700050451ED058451CD072491831884218D0B4
:100A80007149884215D070491831884211D06E4999
:100A9000303188420DD06C494831884209D06A49CA
:100AA0006031884205D068497831884201D0664972
:100AB0009031016821F00101016010E000F01EFD9D
:100AC0000099401A05280AD92022626500200321D6
:100AD00084F8340084F835100120BDE8F88F3868B8
:100AE000C007EBD1534A0121206890422ED0A84282
:100AF0002CD0B0422AD0404528D0484526D0504579
:100B000024D0584522D04F4B183398421ED04E4B1C
:100B100098421BD04C4B1833984217D04A4B303375
:100B2000984213D0484B483398420FD0464B60331D
:100B300098420BD0444B7833984207D0424B9033C5
:100B4000984203D0404BA833984208D194F85C7087
:100B50003F23A06D07F01F07BB40836007E094F8B8
:100B60005C30A06D03F01F0301FA03F343602068BB
:100B700090424DD0A8424BD0B04249D0404547D0DA
:100B8000484545D0504543D0584541D02D4A1832AC
:100B900090423DD02C4A90423AD02B4A1832904293
:100BA00036D0294A3032904232D0274A48329042D9
:100BB0002ED0254A603290422AD0234A7832904281
:100BC00026D0214A9032904222D01F4AA832904229
:100BD0001ED01E4A90421BD01C4A1432904217D09D
:100BE0001A4A2832904213D0184A3C3290420FD011
:100BF000164A503290420BD0144A6432904207D0C9
:100C0000124A7832904203D0104A8C3290420BD173
:100C1000D4E919024260E06E30B1026822F48072B9
:100C20000260D4E91C024260002084F8340084F899
:100C3000351052E710000240580002407000024098
:100C400088000240A00002401004024008540258EC
:100C50002DE9F05F28B190F83510022904D08021E9
:100C600041650120BDE8F09F904C904B0168183C15
:100C700018338E4ADFF83C92A1428D4CDFF838E2FF
:100C80008E4FDFF83CB2DFF83CA28F4D8F4E31D053
:100C900091422FD099422DD0A1422BD0494529D045
:100CA000714527D0B94225D0DFF810C20CF1180CDD
:100CB00061451FD0DFF808C2ACF1600C614519D066
:100CC000DFF8FCC1ACF1480C614513D0DFF8F0C18E
:100CD000ACF1300C61450DD0DFF8E4C1ACF1180C7B
:100CE000614507D0594505D0514503D0A94201D0EF
:100CF000B1422CD1DFF8B4C14FF0040880F8358040
:100D0000ACF1180C61451DD091421BD0994219D00D
:100D1000A14217D0494515D0714513D0B94211D021
:100D20006648183081420DD065486038814209D04C
:100D300063484838814205D061483038814201D04B
:100D40005F481838086820F001000860ABE0D1F86F
:100D500000C02CF00E08DFF854C1C1F80080ACF1DF
:100D6000180C0168614527D0914225D0994223D0C3
:100D7000A14221D049451FD071451DD0B9421BD099
:100D8000DFF838C10CF1180C614515D0DFF830C11F
:100D9000ACF1600C61450FD0DFF824C1ACF1480C18
:100DA000614509D0DFF818C1ACF1300C614503D0C2
:100DB000DFF80CC1ACF1180CD1F800C02CF0010C1C
:100DC000C1F800C0DFF8E4804FF0010C0168A8F121
:100DD0001808414546D0914244D0994242D0A142A0
:100DE00040D049453ED071453CD0B9423AD0334A13
:100DF0001832914236D0324A603A914232D0304A6B
:100E0000483A91422ED02E4A303A91422AD02C4A6A
:100E1000183A914226D0594524D0514522D0A942B2
:100E200020D0B1421ED02A4A91421BD0284A143207
:100E3000914217D0264A2832914213D0244A3C329C
:100E400091420FD0224A503291420BD0204A643254
:100E5000914207D01E4A7832914203D01C4A8C320C
:100E6000914218D1016E0A6822F480720A6090F8EB
:100E70005C20816D02F01F020CFA02F24A60D0E998
:100E800019124A60C16E31B10A6822F480720A6098
:100E9000D0E91C124A600022016D80F8342080F8ED
:100EA00035C001B188470020DCE600002800024080
:100EB000580002407000024088000240A00002403A
:100EC0007004024088040240A0040240B8040240BA
:100ED0000854025870B5044600F010FB0546601C2B
:100EE00002D004480078044400F008FB401BA042F4
:100EF000FAD370BD2C000024F8B5040002D0E06ED7
:100F000010B104E00120F8BD204600F0FBF82320DA
:100F1000E0667248016841F002010160006800F07B
:100F200002000090207A08B14FF4000001F0F4FEB6
:100F3000206800F58050016841F00101016000F077
:100F4000DDFAE02605464FF4FA7706E000F0D6FA1F
:100F5000401BB84201D9042049E0206800F58050C8
:100F60000068C007F2D12068D0F8000220F4706554
:100F700001F06CFB5A495B4A0144914202D245F4AC
:100F8000007516E0584A594902448A4202D245F493
:100F900040750EE05649574A0144914209D35649DB
:100FA000564A0844904202D245F4807501E045F467
:100FB00080652068C0F8005201F048FB504A216863
:100FC000B0FBF2F0401EC1F8DC002046FFF7E3FA68
:100FD000206800F58050D0F8001121F4E01141F4B0
:100FE0000021C0F800116169880703D00120606703
:100FF000E66687E7206847F6FE7300F58050D0F874
:1010000008219A4342EA4101C0F8081100210A462A
:10101000E06802EB420504EB820300EBC5000160CF
:1010200041608160C160521C042A9861F0D3A162C2
:101030000323206800F58050C0F82C312068E26856
:1010400000F58050C0F814212068E26800F5805057
:10105000C0F820215FF00002206902EB420604EB99
:10106000820500EBC600016041608160C160521CD6
:101070000161042A41616864EED36165A165E1659F
:1010800061662166206800F58050C0F83031206824
:10109000226900F58050C0F81C212268206902F501
:1010A00080524830C2F828011022D4E900308088EC
:1010B000C3F80003D4E900308578C77890F801C000
:1010C00006782D0446EA076045EA0C252843C3F854
:1010D00004036167E26622670020F8BDF444025809
:1010E00000D3CEFEC0E1E40040F1E9FD40787D018F
:1010F00000796CFC005A6202001F0AFA80F0FA02C2
:1011000040420F0070B586B0044614216846FFF7D0
:10111000DCF936492068884266D13548016841F4D7
:1011200000410160016801F400410591016841F44A
:1011300080310160016801F480310591016841F45A
:1011400000310160006800F4003005902848083044
:10115000016841F004010160016801F0040105919A
:10116000016841F001010160016801F00101059190
:10117000016841F002010160016801F0020105917E
:10118000016841F040010160006800240B266946B7
:1011900000F0400005903220009002251548CDE96E
:1011A0000154CDE9034600F081F886200090CDE996
:1011B000015411486946CDE9034600F077F8280349
:1011C0000090CDE901540D486946CDE9034600F091
:1011D0006DF84FF420500090CDE90154084869465D
:1011E000CDE9034600F062F806B070BD0080024011
:1011F000D84402580008025800000258000402585F
:10120000001802582DE9F0411F4C4FF400771F4D94
:10121000BE00B8422169616112D13146284600F012
:101220005DF930B13146284600F058F9012803D065
:101230001CE0E068401C01E0E068401EE06015E052
:1012400000BFB04212D13946284600F047F90128C4
:1012500005D03946284600F041F918B107E0E068AA
:10126000401C01E0E068401EE06000E000BFE06874
:101270004010206104F0C4F8BDE8F04104490A229E
:10128000A1F5936002F0ACBA0000002400100258EF
:101290002C0600244FF0B04110B5D1F8882002424E
:1012A00003D0C1F88800FFF7ADFF10BD2DE9FC4F5A
:1012B00001257E4C00234FF0030A4FF0B04E4FF053
:1012C0000F0BEBE005FA03F637403A0077D04F6892
:1012D000012F05D0022F03D0112F01D0122F1AD1C8
:1012E00087684FEA4308D1F80CC00AFA08F927EAE0
:1012F00009070CFA08FC4CEA070CC0F808C047685C
:1013000091F804C0B743CCF3001C0CFA03FC4CEA80
:10131000070CC0F804C0C6684FEA430CD1F8088037
:10132000E1460AFA0CF7BE43019708FA09F848EAC1
:101330000608C0F80C804E68022E01D0122E12D181
:10134000DE084FEA437C00EB860600960F69366A9A
:101350004FEADC6C0BFA0CF807FA0CF726EA0806E1
:101360003743009E37620E790768DDF804C006F047
:10137000030606FA09F627EA0C073E4306604E68A4
:10138000F6001CD54A4E376847F0020737603668CA
:101390009F0706F00206009623F0030606F1B0460A
:1013A000B1463F0FD6F80864DFF808810BFA07FC56
:1013B000404526EA0C0603D14FF0000C41E06CE0FA
:1013C000DFF8F4C0604502D14FF0010C39E0DFF8DE
:1013D000ECC0604502D14FF0020C32E0DFF8E0C013
:1013E000604502D14FF0030C2BE0DFF8D8C0604518
:1013F00002D14FF0040C24E0DFF8CCC0604502D1EC
:101400004FF0050C1DE0DFF8C4C0604502D14FF07D
:10141000060C16E0DFF8B8C0604502D14FF0070CAB
:101420000FE0DFF8B0C0604502D14FF0080C08E0D3
:10143000DFF8A4C0604502D14FF0090C01E04FF085
:101440000A0C0CFA07FC4CEA060CC9F808C426681A
:101450004F6826EA0206FF0300D516432660666839
:101460004F6826EA0206BF0300D516436660D1F82E
:1014700004C07646DEF800705FEACC2C27EA02074B
:1014800000D517433760D1F804C077685FEA8C2C29
:1014900027EA020700D5174377605B1C0A681746E6
:1014A000DA407FF40FAFBDE8FC8F000080000058E9
:1014B000F444025800000258000402580008025880
:1014C000000C02580010025800140258001802586C
:1014D000001C0258002002580024025800690840ED
:1014E00000D0012070470AB1816170470904FBE711
:1014F00001480068000C70470010005C01488068DB
:10150000704700002C0000240248816802781144D2
:10151000816070472C000024032010B500F086F88D
:1015200001F0DAF80F4A104914681368C4F3032273
:1015300003F00F038A5CC95C02F01F0201F01F0177
:10154000D0400A4A20FA01F11160094908600020E0
:1015500000F010F808B1012010BD00F02BF80020B9
:1015600010BD000018440258265700083C00002413
:101570003800002470B50D4D04462878A0B14FF412
:101580007A71B1FBF0F00A490968B1FBF0F001F0A3
:10159000CDFB48B9102C07D200222146501E00F086
:1015A00025F800206C6070BD012070BD2C00002467
:1015B00038000024054808B5016841F002010160C7
:1015C000006800F00200009008BD0000F4440258DA
:1015D000002809DB410900F01F028900012001F108
:1015E000E0219040C1F80001704700000E4BF0B4BC
:1015F0001B680D46C3F30223C3F10706042E00D96E
:101600000426191D072901D2002300E0DB1E012456
:1016100004FA06F19C40491E2940641E994014407A
:101620002143F0BC03F0B2BE0CED00E0064900F02F
:10163000070210B54FF6FF040868044B204040EA4B
:1016400002201843086010BD0CED00E00000FA0510
:1016500001680123C0F8FC33002280F8F423886974
:10166000044A40F000608861486D104348650020DE
:1016700070470000030000102DE9F04104008AB01B
:1016800005D094F8BD030025266820B108E00120AC
:101690000AB0BDE8F081204684F8BC5300F066F83B
:1016A000032084F8BD03F06BC00500D425612068D9
:1016B00003F02CFE04F11001684628228846FEF74C
:1016C000D2FE94E80F0003F0F7FC0227D8BB206895
:1016D000002103F043FE0020012610E0C0EBC00112
:1016E000421C04EB810181F83D6081F83F504D645C
:1016F0008D640D6581F83C00A1F84200D0B26168AC
:101700008142EBD8002011E0C0EBC001421C04EB89
:10171000810181F8FD5181F8FF51C1F80452C1F8EF
:101720000852C1F8105281F8FC01D0B261688142C0
:10173000EAD8282241466846FEF795FE94E80F0055
:1017400003F028FD10B184F8BD73A0E7606A84F847
:10175000385084F8BD63012802D12046FFF778FF96
:10176000206803F009FD002092E7000030B5B5B015
:10177000044614212FA8FEF7A8FEBC216846FEF7F8
:10178000A4FE1F492068884237D14FF48020009082
:1017900081006846219100F0C1F908B1FFF7A4F873
:1017A00000F05EF81748016841F00101016000682F
:1017B0002FAB0024144D00F00100349002214FF4AF
:1017C000C8500A2283E81300CDE932422FA92846E7
:1017D000FFF76CFD4FF40070CDE92F042FA92846C8
:1017E0003194FFF763FD07480838016841F0006154
:1017F0000160006800F00060349035B030BD00003A
:1018000000000840E044025800000258134970B537
:101810000A68D243520705D5096801F007018142E1
:1018200013D118E00A6822F0070202430A60FFF7AA
:1018300065FE0A4D4FF47A760446083D07E000BF86
:10184000FFF75CFE001BB04201D9012070BD286883
:10185000C0438004F4D4002070BD00000C4802583E
:101860000248016841F08071016070470C480258DD
:1018700010B500F0EBFE05490968054AC1F30211F5
:10188000515C01F01F01C84010BD00002044025807
:1018900026570008494930B5484C0B1D0A681434D6
:1018A00009681D68246802F00303C5F30012C1F340
:1018B0000531C4F3CC04002914FB02F200EE102A17
:1018C000F8EE400A75D03F4A9FED3D1AB7EE000A88
:1018D0006BB1DFED3D1A012B01D0022B64D002EE7B
:1018E000101A1168F8EE422A81EEA22A21E0334C48
:1018F000283C23689B0612D5344B246801EE901ACD
:101900001168C4F3C104F8EE612AE34001EE903A95
:10191000C1F30801F8EE611A81EEA22A0BE001EE94
:10192000901ADFED2B2A00BFF8EE611A116882EEE3
:10193000A12AC1F3080101EE901A1168F8EE611AAC
:1019400040EE811A71EE800A62EE200AC1F3462150
:1019500001EE101AB8EE411A31EE001AC0EE811AEB
:10196000BCEEE11A80ED001A1168C1F3064101EEE8
:10197000101AB8EE411A31EE001AC0EE811ABCEE10
:10198000E11A80ED011A1168C1F3066101EE101A27
:10199000B8EE411A31EE000A80EE801ABCEEC10AA0
:1019A00080ED020A30BD04E001EE901ADFED092A55
:1019B000BAE70021016041608160F3E728440258E2
:1019C00000000039384402580024744A0090D003C3
:1019D0000024744C0024F44A494930B5484C0B1D8E
:1019E0000A681C3409681D68246802F00303C5F303
:1019F0000022C1F30551C4F3CC04002914FB02F208
:101A000000EE102AF8EE400A75D03F4A9FED3D1ACD
:101A1000B7EE000A6BB1DFED3D1A012B01D0022BAE
:101A200064D002EE101A1168F8EE422A81EEA22A62
:101A300021E0334C283C23689B0612D5344B2468A4
:101A400001EE901A1168C4F3C104F8EE612AE34074
:101A500001EE903AC1F30801F8EE611A81EEA22A74
:101A60000BE001EE901ADFED2B2A00BFF8EE611AB1
:101A7000116882EEA12AC1F3080101EE901A1168E3
:101A8000F8EE611A40EE811A71EE800A62EE200AC9
:101A9000C1F3462101EE101AB8EE411A31EE001AD8
:101AA000C0EE811ABCEEE11A80ED001A1168C1F394
:101AB000064101EE101AB8EE411A31EE001AC0EEDE
:101AC000811ABCEEE11A80ED011A1168C1F30661BA
:101AD00001EE101AB8EE411A31EE000A80EE801ABB
:101AE000BCEEC10A80ED020A30BD04E001EE901A9E
:101AF000DFED092ABAE70021016041608160F3E768
:101B00002844025800000039404402580024744A16
:101B10000090D0030024744C0024F44A2DE9FC5FAB
:101B2000044650F8241B002500902E460801FE4F65
:101B3000DFF8F8831DD5606E50B1B0F5801F0CD072
:101B4000B0F5001F0ED0B0F5401F1DD001250FE0ED
:101B5000386840F40030386016E00221201D02F0A1
:101B6000BDF803E00098022102F048F905000BD00F
:101B70002E462088C00523D5606D05281ED2DFE8DB
:101B800000F00C11161B1B00626ED8F8001021F437
:101B900040111143C8F80010EBE7386840F40030FA
:101BA000386009E00021201D02F098F803E0009859
:101BB000002102F023F905466DB100E001252E4613
:101BC0002088800528D5A06D80281ED00CDC90B11F
:101BD00040280ED114E0626DD8F8001021F0070102
:101BE0001143C8F80010EBE7C02813D0B0F5807F90
:101BF00010D001250FE0386840F40030386009E06B
:101C00000021201D02F06AF803E00098002102F094
:101C1000F5F8054695B12E462088DFF8109340056B
:101C200009F108092CD5D4F8A400B0F5800F20D014
:101C30000DDCA0B1B0F5001F0FD115E0A26DD8F8F2
:101C4000001021F4E0711143C8F80010E4E7B0F58A
:101C5000C00F13D0B0F5000F10D001250FE0386889
:101C600040F40030386009E00021201D02F036F811
:101C700003E00098002102F0C1F8054675B12E4638
:101C8000208800052DD5D4F8A800B0F1007F21D020
:101C90000EDCA8B1B0F1807F10D116E0D4F8A420FA
:101CA000D9F8001021F460011143C9F80010E7E7EA
:101CB000B0F1407F13D0B0F1806F10D001250FE05C
:101CC000386840F40030386009E00021201D02F03F
:101CD00005F803E00098002102F090F805466DB188
:101CE0002E46206880011FD5A06CD8B110280FD0D7
:101CF000202812D0302815D0012514E0D4F8A820CF
:101D0000D9F8001021F0E0611143C9F80010E8E7AC
:101D1000386840F40030386004E00221201D01F0F2
:101D2000DDFF05466DB12E462088C0042BD5E06D41
:101D3000B0F5005F20D00DDCA0B1B0F5805F0FD111
:101D400015E07A48A26C001F016821F030011143B0
:101D50000160E9E7B0F5405F13D0B0F5804F10D0D7
:101D600001250FE0386840F40030386009E00021B8
:101D7000201D01F0B3FF03E00098002102F03EF8BF
:101D8000054685B12E462088800429D5206EB0F501
:101D9000403F23D010DC08B3B0F5803F14D0B0F53D
:101DA000003F0FD115E0E26DD8F8001021F4E041BA
:101DB0001143C8F80010E6E7B0F5802F0ED0B0F55B
:101DC000A02F0BD001250AE00121201D01F086FF84
:101DD00003E00098012102F011F805468DB12E466E
:101DE000208840042AD5D4F8AC00B0F1405F23D05D
:101DF00010DC08B3B0F1805F14D0B0F1005F0FD1F8
:101E000015E0226ED8F8001021F4E0211143C8F843
:101E10000010E5E7B0F1804F0ED0B0F1A04F0BD02D
:101E200001250AE00121201D01F058FF03E0009880
:101E3000012101F0E3FF05466DB12E462088000424
:101E40001FD5E06ED8B1B0F1805F0ED0B0F1005F69
:101E500010D0012514E0D4F8AC20D9F8001021F0FE
:101E6000E0411143C9F80010E8E7386840F4003059
:101E7000386004E00121201D01F030FF05466DB1FE
:101E80002E462068C0011ED5606CD0B101280ED04E
:101E9000022811D0032814D0012513E0E26ED8F8EF
:101EA000001021F040511143C8F80010E9E73868EC
:101EB00040F40030386004E00221201D01F00EFFE4
:101EC000054685B12E462068DFF85CB04002ABF1D4
:101ED0001C0B57D51648016841F480710160FFF76B
:101EE0000DFB82460EE01148626C001F016821F074
:101EF000030111430160E6E7FFF700FBA0EB0A00D6
:101F000064283DD80A480068C005F5D57DBBDFF8D8
:101F10001CA0B4F8B0200AF1200ADAF8001002F48C
:101F2000407001F4407105E02C44025850440258BE
:101F300000480258814211D0DAF80010DAF8002087
:101F400021F4407142F48032CAF80020DAF800200F
:101F500022F48032CAF80020CAF80010D4F8B00089
:101F6000B0F5807F21D1FFF7C9FA019019E008E0B0
:101F7000FFF7C4FA0199411A41F28830814210D921
:101F800003252E462078DFF844A4C0073DD0A06F7B
:101F9000182838D026DC80B3082829D0102825D16D
:101FA0002CE0DAF800008007E2D5D4F8B010C1F3D5
:101FB0000120032858460DD0016821F47C510160AE
:101FC000B4F8B020DAF80010C2F30B021143CAF8DB
:101FD0000010D7E7FE4A036802EA111223F47C518D
:101FE0001143ECE720280ED028280CD001250BE067
:101FF0000121201D01F072FE04E004E0009801219F
:1020000001F0FCFE05465DB12E46207880071ED506
:10201000606F062819D2DFE800F0160C11161616AC
:10202000A26FDAF8001021F038011143CAF800104D
:10203000EBE70121201D01F051FE03E00098012192
:1020400001F0DCFE054675B100E001252E46207842
:1020500040071FD5D4F89000062819D2DFE800F019
:10206000160C11161616626FDAF8001021F007012F
:102070001143CAF80010EAE70121201D01F02EFEED
:1020800003E00098012101F0B9FE05469DB100E092
:1020900001252E46207880062BD5D4F88C00B0F18F
:1020A000405F24D011DC10B3B0F1805F15D0B0F1E7
:1020B000005F10D116E0D4F89020D9F8001021F07C
:1020C00007011143C9F80010E4E7B0F1804F0ED0CA
:1020D000B0F1A04F0BD001250AE00021201D01F036
:1020E000FDFD03E00098022101F088FE05468DB158
:1020F0002E46207840062BD5D4F89800B0F5406FD6
:1021000024D011DC10B3B0F5806F15D0B0F5006F9E
:1021100010D116E0D4F88C20DAF8001021F0E0415C
:102120001143CAF80010E4E7B0F5805F0ED0B0F5B7
:10213000A05F0BD001250AE00021201D01F0CEFD9B
:1021400003E00098022101F059FE05468DB12E46AC
:10215000207800062BD5D4F89C00B0F5C04F24D0D1
:1021600011DC10B3B0F5005F15D0B0F5804F10D181
:1021700016E0D4F89820D9F8001021F4E05111436A
:10218000C9F80010E4E7B0F5004F0ED0B0F5204FCD
:102190000BD001250AE00021201D01F09FFD03E086
:1021A0000098022101F02AFE05464DB12E46207806
:1021B00000071ED5D4F88000B0F5805F0AD00FE08C
:1021C000D4F89C20D9F8001021F460411143C9F8DB
:1021D0000010ECE70098022101F010FE00B101268A
:1021E000D4F88020DAF8001021F440511143CAF8E5
:1021F00000102078C00613D5D4F89400B0F5807F85
:1022000005D10098022101F0F9FD00B10126D4F8B2
:102210009420D9F8001021F440711143C9F800103E
:102220002068000316D5D4F8A00038B1B0F5803F7F
:1022300009D0B0F5003F0BD001250AE00021201D98
:1022400001F04CFD03E00098022101F0D7FD0546A6
:1022500085B12E462068400322D5D4F88400B0F51D
:10226000801F11D0B0F5001F13D0B0F5401F15D05E
:10227000012514E0D4F8A020D9F8001021F4403151
:102280001143C9F80010E5E7386840F400303860C1
:1022900004E00098012101F0B1FD054655B12E463C
:1022A0002068C0031CD5E06C70B1B0F5803F10D041
:1022B000012514E0D4F88420DAF8001021F440114C
:1022C0001143CAF80010EBE7386840F4003038607A
:1022D00004E00221201D01F001FD0546CDB12E468E
:1022E0002068800005D50098022101F087FD00B12B
:1022F0000126206880031BD5E06FB8B1B0F5807F60
:1023000010D0B0F5007F11D0B0F5407F0ED0012580
:102310000DE02E48E26C0838016821F48031114349
:102320000160DDE7386840F400303860F5B32E46D0
:102330002068C00207D5226FD8F8001021F00041B4
:102340001143C8F800102068C00008D5D4F8B420A4
:10235000DBF8001021F480411143CBF80010206815
:10236000800207D5A26ED8F8001021F080711143C9
:10237000C8F80010206840000CD5DBF8001021F4EC
:102380000041CBF80010DBF80010D4F8B82011435E
:10239000CBF800102068002807DA0C48226D0838B6
:1023A000016821F040511143016000E014E0206811
:1023B000000208D5D4F88820DAF8001021F4400192
:1023C0001143CAF8001086B1012003E054440258BA
:1023D000CFFFFF00BDE8FC9FE26FDAF8001021F4A8
:1023E00040711143CAF80010A2E70020EDE7000099
:1023F0002DE9F05F04000F467ED0DFF83882D8F870
:10240000000000F00F00B8420CD2D8F8001021F004
:102410000F013943C8F80010D8F8000000F00F0091
:10242000B84269D12078844D40070AD520692968CF
:1024300001F07001884204D9296821F0700101433C
:10244000296020787C4E361D00070AD56069316806
:1024500001F07001884204D9316821F07001014314
:1024600031602078C0060AD5A069316801F4E061C6
:10247000884204D9316821F4E06101433160207859
:10248000DFF8B4B180060BF1080B0CD5E1695846B2
:10249000DBF8002002F07002914204D9026822F0B9
:1024A00070020A430260207880070AD5E068296834
:1024B00001F00F01884204D9296821F00F0101437E
:1024C00029602078C0073ED05B49A2682868183987
:1024D00020F47060104328606068022818D0032838
:1024E00019D00968012819D0490700294ADADFF80C
:1024F00048A1AAF1080A00E044E0DAF8002022F03E
:1025000007020243CAF80020FEF7F8FF814612E0F6
:1025100009688903E9E709688901E6E7C905E4E78D
:10252000FEF7ECFFA0EB090141F28830814202D9AD
:102530000320BDE8F09F6168DAF8000000F0380081
:10254000B0EBC10FECD1207880070AD5E06829688C
:1025500001F00F01884204D2296821F00F010143E4
:102560002960D8F80010404601F00F01B9420BD99C
:10257000016821F00F0139430160006800F00F008D
:10258000B84201D00120D4E7207840070AD520695D
:10259000296801F07001884204D2296821F0700195
:1025A00001432960207800070AD56069316801F08D
:1025B0007001884204D2316821F07001014331601A
:1025C0002078C0060AD5A069316801F4E06188422C
:1025D00004D2316821F4E061014331602078800643
:1025E0000CD5E1695846DBF8002002F070029142F8
:1025F00004D2026822F070020A43026000F06CF814
:102600000E492A682B68C2F3032203F00F038A5C89
:10261000C95C02F01F0201F01F01D040084A20FAF5
:1026200001F111600749086007480068BDE8F05FE4
:10263000FEF7A0BF00200052184402582657000899
:102640003C000024380000243000002430B500F0A5
:1026500043F80B4A0B490C4B15681468C5F3032269
:1026600004F00F048A5C095D02F01F0201F01F01F3
:10267000D040064A20FA01F119601060084630BDCA
:1026800018440258265700083C0000243800002453
:1026900000B5FFF7DBFF05490968054AC1F30211E0
:1026A000515C01F01F01C84000BD00001C440258ED
:1026B0002657000800B5FFF7C9FF05490968054A14
:1026C000C1F30221515C01F01F01C84000BD0000B0
:1026D0001C44025826570008454970B5454809680A
:1026E000434B103B11F0380208D00111082A03D0E7
:1026F000102A0BD0182A0BD0084670BD196889061D
:10270000FBD51968C1F3C101C84070BD3A4870BD1E
:102710003749374D18310C1D24350A680968266879
:102720002D6802F0030406F00102C1F30511C5F3A0
:10273000CC0515FB02F200EE102AB8EE400AE9B310
:102740002F4ADFED2E0AB7EE001A6CB1DFED2D1A1D
:10275000012C01D0022C43D002EE101A1068F8EEC2
:10276000422A81EEA22A1EE01C68A40611D51B682D
:1027700001EE901A1168C3F3C103F8EE612AD84044
:1027800001EE900AC1F30800F8EE611A81EEA22A68
:102790000BE001EE901ADFED1C2A00BFF8EE611A83
:1027A000106882EEA12AC0F3080001EE900AF8EE4C
:1027B000611A40EE201A31EE810A00E015E022EEA7
:1027C000000A1068C0F34620401C00EE900AF8EEA4
:1027D000600A80EE201ABCEEC10A10EE100A70BD2D
:1027E00001EE901ADFED092AD8E7002070BD000045
:1027F000104402580090D00300127A000000003903
:10280000304402580024744A0024744C0024F44AD2
:102810002DE9F05F04007CD0FF4F2078FE4D183783
:10282000DFF8F493103DC00748D0D9F800003968AC
:1028300000F03800102815D0182803D101F003004B
:1028400002280FD06068B0F5803F12D010B1B0F50B
:10285000A02F18D0286820F480302860286820F441
:10286000802009E02868800328D560680028D2D03D
:1028700024E0286840F480302860606888B1FEF762
:102880003DFE064609E0286840F480202860F0E715
:10289000FEF734FE801B64287ED828688003F7D5B5
:1028A0000CE0FEF72BFE064605E000BFFEF726FE15
:1028B000801B6428F0D828688003F7D4207841F280
:1028C0000308D54E0C3E800753D5D9F8000039686F
:1028D00010F038000ED0182801D188070AD0E0681F
:1028E000A8B3296821F0190101432960FEF706FE0B
:1028F00082461BE02868400702D5E06800288AD09D
:10290000FEF7F6FD40451BD82069402812D03168FB
:1029100000E0CCE021F47C3141EA0030306028E076
:10292000FEF7ECFDA0EB0A000228B5D828684007A6
:10293000F6D5E5E7306820F47C3040F40030EDE770
:10294000207C316821F0FE4141EA0060E6E7FFE7C4
:10295000286820F001002860FEF7D0FD824605E0DF
:10296000FEF7CCFDA0EB0A00022895D828684007A6
:10297000F6D42078C0065FD5D9F80000DFF898B209
:10298000396800F03800ABF1040B082812D0182881
:1029900005D101F0030000E0EAE001280AD0E06977
:1029A0000028286838D040F080002860FEF7A6FD97
:1029B000824623E02868C00523D5E069802876D1C7
:1029C0001FE0206A202821D0316821F0F84141EA37
:1029D0008060306030E000BF94F82010DBF8002009
:1029E00022F07C5242EA0161CBF8001024E000BFE3
:1029F000FEF784FDA0EB0A00022896D82868C005DF
:102A0000F6D5FEF775FD4045E6D8DAE7306820F0E8
:102A1000F84040F08040DCE720F080002860FEF7BE
:102A20006DFD064605E000BFFEF768FD801B02282D
:102A30009BD82868C005F7D42078000729D57648A8
:102A40006169643000298046016811D041F00101BC
:102A50000160FEF753FD064605E000BFFEF74EFDA0
:102A6000801B0228C9D8D8F800008007F6D510E0EE
:102A700021F001010160FEF741FD064605E000BFBF
:102A8000FEF73CFD801B022872D8D8F800008007B2
:102A9000F6D42078800623D5A0690028286810D0B5
:102AA00040F480502860FEF729FD064605E02CE141
:102AB000FEF724FD801B02285AD828688004F7D529
:102AC0000EE020F480502860FEF718FD064604E072
:102AD000FEF714FD801B02284AD828688004F7D42A
:102AE000207840074FD5DFF83481D8F8001041F442
:102AF0008071C8F80010FEF701FD064605E000BF32
:102B0000FEF7FCFC801B642832D8D8F80000C00512
:102B1000F6D5414EA068603601280AD008B10528D4
:102B200013D0306820F001003060306820F00400DD
:102B300002E0306840F001003060A06841F2883A5D
:102B400090B1FEF7DBFC80460AE0306840F00400FC
:102B50003060EEE7FEF7D2FCA0EB0801514507D844
:102B600030688007F6D50EE0FEF7C8FC804607E027
:102B700084E000BFFEF7C2FCA0EB080151457DD800
:102B800030688007F6D4606AF0B3DFF88C80D9F83B
:102B9000001008F12008C1F3C20103296FD00228F8
:102BA000286820F08070286003D0FEF7A7FC044658
:102BB00080E0FEF7A3FC064605E000BFFEF79EFCA2
:102BC000801B022873D828688001F7D4E26A40F29B
:102BD000F331386854F8283F884340EA021018431C
:102BE0003860217B4FF4FE0C22894FF0FE47208A8B
:102BF0004902267D521E401EA1F5007189B20CEAE1
:102C00000040C2F3080200E081E01143761E014358
:102C1000014807EA066203E01044025800480258DF
:102C20001C3011433B4AC8F80010016821F0010133
:102C3000016011684FF6F876236AB14341EAC30197
:102C400011600168A26921F00C0111430160016863
:102C5000E26921F0020111430160016841F4803111
:102C60000160016841F400310160016841F4802194
:102C70000160016841F00101016001E017E01DE021
:102C8000286840F080702860FEF738FC044604E0B5
:102C9000FEF734FC001B022809D828688001F7D50C
:102CA00035E000BFFEF72AFC001B022802D90320F2
:102CB000BDE8F09F28688001F4D428E03968012835
:102CC000D8F8000021D0A26A01F0030393421CD17E
:102CD000E26AC1F305118A4217D1216BC0F30802E1
:102CE000491E8A4211D1616BC0F34622491E9142AE
:102CF0000BD1A16BC0F30642491E914205D1E16B95
:102D0000C0F30660491E814201D00120D0E70020B7
:102D1000CEE700003444025803490A6822F46002F6
:102D200002430A607047000004040058401EB0F1DE
:102D3000807F10B501D3012010BD4FF0E024606109
:102D40000F21601702F022FB0020A0610721216102
:102D500010BD0000F0B590F83C20012A38D01D4E7F
:102D6000012480F83C40022280F83D2002681A4D80
:102D70005368B242D2F808C001D0AA4203D14F68CA
:102D800023F470033B430F6823F070031F43576025
:102D90000268B24210D0B2F1804F0DD00F4B9A4270
:102DA0000AD00F4B9A4207D00E4B9A4204D0AA4247
:102DB00002D00D4B9A4204D189682CF0800319434C
:102DC0009160002180F83D4080F83C100846F0BD3D
:102DD0000220F0BD0000014000040140000400405A
:102DE00000080040000C00400018004010B504002E
:102DF00003D094F83D0010B107E0012010BD002081
:102E000084F83C00204600F023F8022084F83D00BE
:102E10002068211D01F04CF9012084F8480084F855
:102E20003E0084F83F0084F8400084F8410084F8B4
:102E3000420084F8430084F8440084F8450084F894
:102E4000460084F8470084F83D00002010BD0000D3
:102E500008B50C4A01680C48914207D1016841F05D
:102E600002010160006800F0020009E0074A914297
:102E700007D1016841F004010160006800F004001E
:102E8000009008BD00040040E844025800080040DB
:102E900070B5044690F83C00012814D0394B012548
:102EA00084F83C50022084F83D0022689068184065
:102EB00020F47F4090600868702828D010DC10F063
:102EC0000F0F03D04BE04FF0020070BD4FEA20120D
:102ED000072A44D2DFE802F05151515149323A00F9
:102EE000B0F1101F49D009DCB0F5805F37D0B0F5E4
:102EF000005F17D0B0F5801F31D13EE0A0F5801102
:102F000020393AD0102938D0202928D135E04A6814
:102F10002068D1E9021301F03AF92068816841F094
:102F2000770109E04A682068D1E9021301F02FF91E
:102F30002068816841F48041816010E0CA68496876
:102F4000206801F0BFFA2068502106E0CA6849688D
:102F5000206801F0C8FA2068602101F021F9002002
:102F600084F83D5084F83C0070BDCA684968206808
:102F700001F0A8FA20684021EFE7226801461046D8
:102F8000EBE7000088FFCEFF10B586B004461421A1
:102F90006846FDF79AFA184A0020236817499342B9
:102FA0004FF0020210D10B6843F001030B60096877
:102FB00001F00101059140210091CDE90120CDE909
:102FC00003020F48694612E00E4CA34211D10B6870
:102FD00043F008030B60096801F008010591A11492
:102FE0000091CDE90120CDE9030207486946FEF7CB
:102FF0005DF906B010BD000000040040E044025836
:103000000000025800080040000C025870B5044649
:1030100090F83C000D4601280BD0012084F83C00BC
:103020000C2A45D007DC5AB1042A1BD0082A78D1D3
:103030002CE0022070BD102A4ED0142A71D15DE020
:10304000206801F0B7F82068816941F008018161CA
:103050002068816921F00401816120682A69816901
:10306000114311E0206801F0F9F82068816941F40A
:10307000006181612068816921F48061816120683B
:103080002969826942EA012181614AE0206801F0F0
:1030900031F92068C16941F00801C1612068C16946
:1030A00021F00401C16120682A69C169114311E05E
:1030B000206801F065F92068C16941F40061C161CF
:1030C0002068C16921F48061C16120682969C269F1
:1030D00042EA0121C16124E0206801F087F92068FB
:1030E000416D41F0080141652068416D21F0040106
:1030F000416520682A69416D114311E0206801F0A3
:10310000ABF92068416D41F4006141652068416D73
:1031100021F48061416520682969426D42EA0121FC
:103120004165002084F83C0070BD10B5040003D058
:1031300094F83D0010B107E0012010BD002084F894
:103140003C00204600F022F8022084F83D00206870
:10315000211D00F0ADFF012084F8480084F83E00F6
:1031600084F83F0084F8400084F8410084F842006D
:1031700084F8430084F8440084F8450084F846004D
:1031800084F8470084F83D00002010BD704700001F
:1031900010B504464FF0020269B1042912D0082983
:1031A00017D00C291CD0102921D094F843000128F5
:1031B00024D0012010BD94F83E000128F9D184F8F4
:1031C0003E201DE094F83F000128F2D184F83F2012
:1031D00016E094F840000128EBD184F840200FE07D
:1031E00094F841000128E4D184F8412008E094F8E3
:1031F00042000128DDD184F8422001E084F8432018
:103200000122206800F0B6FF1A4920681A4A884255
:103210000AD0904208D0194B984205D0184B9842DA
:1032200002D0184B984203D1436C43F400434364EB
:103230002068884210D0B0F1804F0DD012498842EA
:103240000AD01249884207D01149884204D09042DE
:1032500002D01049884207D181680F4A11400629DF
:1032600006D0B1F5803F03D0016841F00101016053
:10327000002010BD0000014000040140004001405A
:1032800000440140004801400004004000080040A4
:10329000000C0040001800400700010030B590F815
:1032A0008010012918D0012280F880202421C0F844
:1032B00084100022202450F8641B0B680D6823F052
:1032C000005325F001050D60026050F8641C0B608E
:1032D00004620277104630BD022030BD704770474F
:1032E00070B5044690F8800001281DD0012284F8B2
:1032F00080202420C4F8840020680568026822F039
:10330000010202602068826822F060620A438260E3
:10331000204601F0FBF82268202100201560C4F847
:10332000841084F8800070BD022070BD70B5044622
:1033300090F8800001281DD0012284F880202420EC
:10334000C4F8840020680568026822F00102026067
:103350002068826822F060420A438260204601F0C1
:10336000D5F82268202100201560C4F8841084F864
:10337000800070BD022070BD70477047704700002C
:103380002DE9F04103680446002540F60F06D86990
:1033900019689A68304209D186067DD501F0200669
:1033A00002F080573E4377D0216F39E1AF4EB04FE6
:1033B00016400F4037436FD0C70709D0CF0507D558
:1033C00001271F62D4F88C3043F00103C4F88C301D
:1033D00083070AD5D30708D0276802233B62D4F8B5
:1033E0008C3043F00403C4F88C3043070AD5D3076C
:1033F00008D0276804233B62D4F88C3043F00203E2
:10340000C4F88C3003070CD501F02003334308D0F7
:10341000266808233362D4F88C3043F00803C4F8DC
:103420008C3003050BD54B0109D526684FF400639A
:103430003362D4F88C3043F02003C4F88C30D4F8D5
:103440008C30002B34D0800609D501F0200002F02A
:103450008051084303D0216F09B120468847216875
:10346000D4F88C008968490602D410F0280F21D0C6
:10347000204601F00BF920688168490615D581685E
:1034800021F040018160E06F78B17A490165E06F19
:10349000FDF7DEFB002800E012E009D0E06F016DCF
:1034A00000E02046BDE8F04108472046FFF766FFF0
:1034B000BDE8F0812046FFF761FFC4F88C50F7E7C4
:1034C000E76E2026012F71D1C7066FD5CF066DD5C7
:1034D0001020186222689068400669D5E16F664B3B
:1034E0000868984234D0644B1833984230D0624B0D
:1034F000303398422CD0604B4833984228D05E4BF2
:103500006033984224D05C4B7833984220D05A4B99
:10351000903398421CD0584BA833984218D0574B40
:10352000984215D0554B1833984211D0534B303335
:1035300098420DD0514B4833984209D04F4B6033DD
:10354000984205D04D4B7833984201D04B4B903385
:1035500040680004000CABD0B4F85C308342A7D9BB
:10356000A4F85E00C869B0F5807F18D0106820F418
:10357000807010602068816821F0010181602068FE
:10358000816821F040018160C4F88860E5662068A8
:10359000016821F010010160E06FFDF7A7F9B4F8B0
:1035A0005C00B4F85E10401A81B220E023E0FFE72F
:1035B000B4F85C00B4F85E10B4F85E30401A81B222
:1035C000002BC8D00029C6D010682D4B20F4907075
:1035D00010602068826802EA03028260C4F8886092
:1035E000E56625672068026822F010020260204626
:1035F000FFF774FE5CE7C70209D5570207D54FF401
:10360000801018622046BDE8F041FFF7B6BE0706FD
:103610000AD501F0800702F40002174304D0616F5D
:1036200000297FF43EAF43E742060CD54A060AD58F
:103630001968204621F040011960C4F8846065676C
:1036400000F01CF934E7020206D54A0004D52046F2
:10365000BDE8F041FFF790BEC001CBD50029C9DA23
:103660002046BDE8F041FFF73ABE0000010000101F
:1036700020010004794600081000024010040240B6
:10368000FEFFFFEF10B5040003D0D4F8840010B1A2
:1036900007E0012010BD002084F88000204600F0E3
:1036A00027F82420C4F884002068016821F0010173
:1036B0000160204601F0CEF90128EBD0A06A10B1DC
:1036C000204600F045FF2068416821F490414160A8
:1036D0002068816821F02A0181602068016841F03A
:1036E000010101602046BDE8104000F095BF0000D8
:1036F00030B5B5B0044614212FA8FCF7E6FEBC2176
:103700006846FCF7E2FE1B492068884230D102255A
:103710006846002400951D94FEF700FA08B1FDF7F5
:10372000E3F81548016841F480210160006800F465
:103730008020349010480838016841F00801016089
:1037400000680721CDE9305400F008003490CDE93D
:1037500032414FF440702F9008482FA9FDF7A6FD85
:10376000002227201146FDF741FF2720FDF730FFFB
:1037700035B030BD00480040E8440258000C025803
:1037800070B4D0F88830202B1BD1B9B1B2B190F809
:103790008030012B15D0036801260B4D002480F8E2
:1037A0008060C466AB4206D05C68240203D51C6806
:1037B00044F080641C6070BC01F022BB012070BC2E
:1037C00070470220FBE70000000C00580249082265
:1037D0000248FFF7D5BF0000220000249401002416
:1037E00070B5D0F88430202B3DD141B33AB390F876
:1037F0008030012B37D0466E012480F880400023B2
:103800004367212501655030B6F1005F8280C28098
:10381000C3634563A0F150004FF48051826810D01B
:103820008A4201D10169E1B11049416780F88030D5
:103830000068016841F080010160002070BD012036
:1038400070BD8A4201D1016949B10949416780F8D7
:1038500080300068816841F400018160EDE705492E
:10386000F4E70549E1E7022070BD0000754F00084C
:10387000B54F00081D4F0008D94E00087047FEE7FD
:1038800016498023164870B5134A00240A60E125C2
:1038900004700126437040F2F4528570C4700471C4
:1038A000447148600F480E72C8600F48C1E90402B5
:1038B0000846FDF721FB08B172B6FEE70748342140
:1038C0003438FCF702FE054821224FF440313438E9
:1038D0000260C0E9044170BD008002407400002411
:1038E0001C00002460000430000004302DE9F04F7B
:1038F00087B014216846FCF7E8FD7948016841F07B
:1039000010010160016801F010010591016841F0AA
:1039100004010160016801F004010591016841F0B2
:1039200020010160016801F020010591016841F06A
:1039300080010160016801F080010591016841F09A
:1039400001010160016801F001010591016841F088
:1039500002010160016801F002010591016841F076
:1039600040010160016801F040010591016841F0EA
:1039700008010160006844F20106DFF868B1002226
:1039800000F00800314605905846FDF7ACFD44F2C2
:103990000208554800224146FDF7A5FD4FF4806915
:1039A000524800224946FDF79EFD4FF4805A504888
:1039B00000225146FDF797FD03254BF2FD500024F0
:1039C00069460294CDE900054748FDF76FFC494F71
:1039D0007010CDE90004694638460294FDF766FC94
:1039E0004FF6FF706946CDE9000543480294FDF7A4
:1039F0005DFC41F6CD706946CDE90005384602947C
:103A0000FDF754FC48F239406946CDE900053B48D2
:103A10000294FDF74BFC00960126CDE9016469464E
:103A200058460394FDF742FC49F6FE706946CDE91D
:103A3000000558460294FDF739FC4CF27F70694648
:103A4000CDE900052A480294FDF730FC2C4F4FF4D5
:103A5000206069460294CDE900072348FDF726FC63
:103A6000CDF800806946CDE901641F480394FDF755
:103A70001DFCCDF800906946CDE901641B48039414
:103A8000FDF714FC4EF6FF006946CDE90005174826
:103A90000294FDF70BFC80206946CDE9000714482D
:103AA0000294FDF703FCCDF800A06946CDE901645E
:103AB0000F480394FDF7FAFB002217201146FDF78B
:103AC00095FD1720FDF784FD002228201146FDF703
:103AD0008DFD2820FDF77CFD07B0BDE8F08F0000CC
:103AE000E04402580004025800100258000C02582A
:103AF000001802580008025800140258000002582A
:103B00000000111110B58EB000241C21009407A8EC
:103B1000019402940394049405940694FCF7D5FC54
:103B20001D48632147221B4BC0E9024104618461A7
:103B3000C0E90032FFF75AF908B172B6FEE74FF458
:103B40008050009014486946FFF7A2F908B172B698
:103B5000FEE71148FFF7E9FA08B172B6FEE70E4832
:103B600004A904940694FFF7F5F808B172B6FEE7CD
:103B70006020CDE907040848002207A909940B94A6
:103B8000FFF744FA08B172B6FEE70348FFF7FCF905
:103B90000EB010BD00040040FC00002410B58EB033
:103BA00000241C21009407A8019402940394049417
:103BB00005940694FCF789FC1D48632147221B4BA2
:103BC000C0E9024104618461C0E90032FFF70EF9E7
:103BD00008B172B6FEE74FF4805000901448694671
:103BE000FFF756F908B172B6FEE71148FFF79DFAE4
:103BF00008B172B6FEE70E4804A904940694FFF7D4
:103C0000A9F808B172B6FEE76020CDE907040848BC
:103C1000002207A909940B94FFF7F8F908B172B6CE
:103C2000FEE70348FFF7B0F90EB010BD00080040F2
:103C3000480100241748002110B5154C0C224FF400
:103C4000E1330460C0E90131C160C0E9041281615F
:103C5000C161016241628162FFF714FD08B172B671
:103C6000FEE70C480021FFF761FB08B172B6FEE7E2
:103C700008480021FFF734FB08B172B6FEE705489B
:103C8000FFF70CFB002801D072B6FEE710BD000064
:103C900000480040940100240D48002170B5022323
:103CA0000A4D0122C0E9033183610924C0E90721DB
:103CB000C0E90912C0E90B21C0E90054FDF7DCFCA2
:103CC000002801D072B6FEE770BD00000000084079
:103CD00024020024FEE7FEE7704700002DE9F047CC
:103CE000454D044689464FF0000A2868C0438007C6
:103CF0000AD0414E283E306820F080603060FDF7E9
:103D0000FDFB0746B04608E00120BDE8F08700BF94
:103D1000FDF7F4FBC01B022867D8D8F800000001AB
:103D2000F6D4206829684FF4FE0721F47C313E0266
:103D300041EA00302860207AA389B4F804C0400228
:103D40002D4D2D495B1E227CACF1010C1035091D57
:103D5000A0F5007080B2521ECCF3080C07EA0343B2
:103D600040EA0C00184306EA026210432860086823
:103D7000626920F0C000104308600A68A06922F060
:103D8000200202430A60281D0A6822F010020A601D
:103D900002684FF6F873E4699A4342EAC40202608B
:103DA0000868B9F1000F40F010020A6011D00868ED
:103DB000B9F1010F11D040F400100860D8F80000EC
:103DC000444640F08060C8F80000FDF797FB0546C8
:103DD0000DE0086840F40020EFE740F48010ECE7C5
:103DE000FDF78CFB401B022801D903208DE72068DA
:103DF0000001F5D5504688E7284402582DE9F047E0
:103E0000454D044689464FF0000A2868C0438007A4
:103E10000AD0414E283E306820F080503060FDF7D7
:103E20006DFB0746B04608E00120BDE8F08700BF03
:103E3000FDF764FBC01B022867D8D8F8000080009B
:103E4000F6D4208829684FF4FE0721F07C713E02E9
:103E500041EA00502860207AA389B4F804C04002E7
:103E60002D4D2D495B1E227CACF1010C1835091D2E
:103E7000A0F5007080B2521ECCF3080C07EA034391
:103E800040EA0C00184306EA026210432860086802
:103E9000626920F44060104308600A68A06922F457
:103EA000007202430A60281D0A6822F480720A60C8
:103EB00002684FF6F873E4699A4342EAC40202606A
:103EC0000868B9F1000F40F480720A6011D00868E8
:103ED000B9F1010F11D040F080700860D8F80000EF
:103EE000444640F08050C8F80000FDF707FB054647
:103EF0000DE0086840F48000EFE740F40000ECE7D4
:103F0000FDF7FCFA401B022801D903208DE7206849
:103F10008000F5D5504688E7284402587047FDF7E1
:103F2000F3BA000070B59CB04C216846FCF7CDFA9E
:103F3000202113A8FCF7C9FA0220FDF767FC2149EC
:103F40000A68214822F001020A600968016821F428
:103F5000404141F4004101600168002401F4404106
:103F60001B9101688904FCD54FF4A0220121022095
:103F70000990CDE900120AAA2423052582E80B0046
:103F8000CDE90D050C260F90CDE91064684612941A
:103F9000FEF73EFC08B172B6FEE713AB3F200321EB
:103FA0004FF4006283E817000121179413A81894B6
:103FB00019941A94FEF71CFA002801D072B6FEE795
:103FC0001CB070BD2C040058184802582E48F0B59B
:103FD0002E4A016841F470010160106800F00F0082
:103FE000072804D2106820F00F00C01D1060284977
:103FF0000020274C10340B68264D43F001030B6062
:1040000020600B682B400B60136803F00F03072B35
:1040100004D9136823F00F03DB1D13601C4C1E4AE8
:1040200018341E4B261D371D2060194C1C4D28349A
:104030003060261D3860371D23603B1D35601C1D18
:104040003A60251D2E1D1860331D226028603260E5
:1040500018600A680E4B134C22F4802260330A6009
:10406000186020686FF30F00B0F1005F03D20E49B3
:104070000120C1F8080143F2D2000C49024B4A0367
:10408000803B08601A60F0BD88ED00E0002000521F
:10409000004402587FEDF6EA8002010100020202AC
:1040A0000000FF010010005C008000510040005241
:1040B0002DE9F047274B4FF0804A274D0268984280
:1040C000264E274F274C09D0504507D0A84205D08F
:1040D000B04203D0B84201D0A04205D1D1F804C00B
:1040E00022F070024CEA0202DFF87CC0DFF87C802C
:1040F0009842DFF87C900FD050450DD0A8420BD0ED
:10410000B04209D0B84207D0A04205D0604503D0E4
:10411000404501D0484503D1CD6822F440722A437E
:104120004D6922F080022A43026098428A68C26286
:104130000A68826207D0A04205D0604503D040459E
:1041400001D0484501D10969016301214161BDE800
:10415000F08700000000014000040040000800401B
:10416000000C0040000401400040014000440140B8
:104170000048014010B5046A012301F01F018B4083
:104180009C4304628A40016A1143016210BD42EA05
:10419000032283680A4323F47F410A438260704705
:1041A000034B82681A400A4342F00701816070475E
:1041B0008FFFCFFF2DE9F04F026ADFF88880DFF82C
:1041C000889022F00102DFF884A0DFF884B0214F4C
:1041D0000262DFF884C0066A4268836926F002063C
:1041E0000D68B8428C6803EA0C0323F0030344EA29
:1041F000060445EA030507D0404505D0484503D0ED
:10420000504501D0584505D1CB6824F0080423431C
:1042100023F00404B84207D0404505D0484503D0F8
:10422000504501D0584505D122F44076D1E90532F8
:1042300033431A4342608561496841630462BDE8C3
:10424000F08F0000000401400040014000440140A4
:1042500000480140000001408FFFFEFFF0B5026AF8
:104260001E4E1F4C22F01002DFF878E00262056A51
:104270004368826925F02005D1F808C0A0420F6884
:1042800002EA060222F4407245EA0C1542EA0722CD
:1042900001D0704506D1CE6825F0800545EA0615A7
:1042A00025F04005A0420AD0704508D00E4CA0422F
:1042B00005D00E4CA04202D00D4CA04207D1D1E94E
:1042C000054623F4406343EA840343EA86034360DC
:1042D0008261496881630562F0BD0000FF8FFFFEC7
:1042E0000000014000040140004001400044014042
:1042F00000480140F0B5026A1C4D1D4E22F4807248
:10430000A8420262026A4368C76922F40072D1F8C7
:1043100008C00C6827F0730742EA0C2244EA07043D
:1043200001D0B04206D1CF6822F4006242EA0722EF
:1043300022F48062A8420AD0B04208D00D4DA842B3
:1043400005D00D4DA84202D00C4DA84207D1D1E9AD
:10435000055623F4405343EA051343EA061343602A
:10436000C4614968C1630262F0BD00000000014001
:104370000004014000400140004401400048014069
:1043800070B5026A144B22F4805202629842036AAA
:104390004268C46923F400538E680D6824F4E6442F
:1043A00043EA063344EA05240BD00C4DA84208D05A
:1043B0000B4DA84205D00B4DA84202D00A4DA84291
:1043C00004D14D6922F4804242EA85124260C46100
:1043D00049680164036270BD0000014000040140AF
:1043E000004001400044014000480140F0B5026A2D
:1043F00022F480320262134F056A4268446D25F44C
:1044000000350E89B8420B6824F0700445EA064571
:1044100043EA04030BD00C4CA04208D00B4CA04242
:1044200005D00B4CA04202D00A4CA04204D14C69EA
:1044300022F4803242EA0422426043654968816581
:104440000562F0BD00000140000401400040014051
:104450000044014000480140F0B5026A22F4801295
:104460000262134F046A4268436D24F400140E89FB
:10447000B8420D6823F4E04344EA065443EA0523B6
:104480000BD00C4DA84208D00B4DA84205D00B4DC7
:10449000A84202D00A4DA84204D14D6922F400324C
:1044A00042EA8522426043654968C1650462F0BD05
:1044B0000000014000040140004001400044014070
:1044C0000048014010B5036A046A23F00A0324F08F
:1044D0000104046284690B4324F0F00141EA0211F3
:1044E0008161036210BD10B5036A23F010030362FB
:1044F0008369046A23F4704324F0A00443EA02327F
:10450000826144EA0111016210BD000030B5416EC4
:10451000B9B101680D4B03F108048A688968C2F3D8
:104520004262490F5D5C615C2D01B5FBF1F1A0F8C1
:104530006A10995CA25C0901B1FBF2F1A0F8681065
:1045400030BD0121A0F86A10F8E7000016570008F6
:1045500090F82810C90706D00168C36A4A6822F497
:1045600000321A434A6090F82810890706D501687E
:10457000036B4A6822F480321A434A6090F828108C
:10458000490706D50168436B4A6822F480221A4322
:104590004A6090F82810090706D50168836B4A68BD
:1045A00022F400421A434A6090F82810C90606D542
:1045B0000168C36B8A6822F480521A438A6090F8BB
:1045C0002810890606D50168036C8A6822F4005217
:1045D0001A438A6090F82810490611D50168436C87
:1045E0004A6822F480121A434A60416CB1F5801F78
:1045F00006D10168836C4A6822F4C0021A434A60FB
:1046000090F82810090606D50168C26C486820F4A5
:104610000020104348607047F8B500260446C0F8F3
:104620008C60FCF76BFF054620686FF07E470068E2
:10463000000708D500222B464FF4001120460097B2
:1046400000F0E2FC60B92068006840070AD500224B
:104650002B464FF480012046009700F0D5FC08B1AE
:104660000320F8BD2020C4F88400C4F88800E66662
:10467000002084F88060F8BD10B5806B0021A0F8A0
:104680005E10A0F85610FEF779FE10BD01680C4BC5
:104690000A6822F490720A6001688A681A408A6087
:1046A000C16E012904D101680A6822F010020A6073
:1046B00000212022C0F88820C166016770470000F1
:1046C000FEFFFFEF70B50446D0F888002228B4F84A
:1046D0006010206804D0816941F00801816170BDDB
:1046E000406AA26D08401080A06D801CA065B4F8DF
:1046F0005E00401EA4F85E00B4F85E000028EED113
:10470000206800252021026822F49072026020684F
:10471000826822F001028260C4F888102567E06E8A
:10472000012804D02046FFF751F8E56670BD2068E7
:10473000016821F010010160B4F85C102046FEF71A
:10474000CDFDF2E72DE9F04704460068C569D0F8D1
:1047500000A0D0F80880D4F88810B4F8606022294E
:1047600005D0816941F008018161BDE8F087B4F8A6
:1047700068704FF0000961E02068A16D406A304028
:104780000880A06D801CA065B4F85E00401EA4F8EF
:104790005E002068C569690730D0E9070AD05FEA82
:1047A000CA5107D501210162D4F88C0040F0010004
:1047B000C4F88C00A8070BD55FEAC87008D0216840
:1047C00002200862D4F88C0040F00400C4F88C0089
:1047D00068070BD55FEAC87008D02168042008621A
:1047E000D4F88C0040F00200C4F88C00D4F88C009F
:1047F00020B12046FEF7C2FDC4F88C90B4F85E00EC
:10480000E0B9206820231F4AD0F800C02CF4807C37
:10481000C0F800C02068D0F808C00CEA020CC0F84C
:1048200008C0C4F88830C4F87090E06E01281DD02C
:104830002046FEF7CBFF00BFC4F86C900FB1A8066E
:104840009AD4B4F85E0000288FD0B4F86810814282
:104850008BD92068816821F0805181600A482067E7
:104860002068016841F0200101607EE7206801684E
:1048700021F010010160B4F85C102046FEF72EFD17
:10488000DAE70000FEFFFFEFC546000870B50446FA
:10489000D0F888002228B4F86010206804D081691C
:1048A00041F00801816170BD406AA26D084010703E
:1048B000A06D401CA065B4F85E00401EA4F85E0028
:1048C000B4F85E000028EED120680025202102689F
:1048D00022F4907202602068826822F001028260F5
:1048E000C4F888102567E06E012804D02046FEF742
:1048F0006DFFE56670BD2068016821F01001016060
:10490000B4F85C102046FEF7E9FCF2E72DE9F04729
:1049100004460068C569D0F800A0D0F80880D4F833
:104920008810B4F86060222905D0816941F008013F
:104930008161BDE8F087B4F868704FF0000961E06C
:104940002068A16D406A30400870A06D401CA065D1
:10495000B4F85E00401EA4F85E002068C5696907CF
:1049600030D0E9070AD05FEACA5107D501210162B8
:10497000D4F88C0040F00100C4F88C00A8070BD5D7
:104980005FEAC87008D0216802200862D4F88C0061
:1049900040F00400C4F88C0068070BD55FEAC870CB
:1049A00008D0216804200862D4F88C0040F002008E
:1049B000C4F88C00D4F88C0020B12046FEF7DEFC51
:1049C000C4F88C90B4F85E00E0B9206820231F4A38
:1049D000D0F800C02CF4807CC0F800C02068D0F86B
:1049E00008C00CEA020CC0F808C0C4F88830C4F84B
:1049F0007090E06E01281DD02046FEF7E7FE00BF54
:104A0000C4F86C900FB1A8069AD4B4F85E000028E0
:104A10008FD0B4F8681081428BD92068816821F06A
:104A2000805181600A4820672068016841F02001B8
:104A300001607EE72068016821F010010160B4F890
:104A40005C102046FEF74AFCDAE70000FEFFFFEFAD
:104A50008D4800082DE9F04304468068D84E87B0A1
:104A6000D84B2168D4E90427D4F81CC010430A6845
:104A7000002547EA0C073843324002430A602068A9
:104A8000E268416821F44051114341602268A16904
:104A90009A4201D0206A01439668DFF82CC3CB4FBD
:104AA000CB4806EA0C060E4396602168666ACA6A1D
:104AB00022F00F023243CA622268BA420ED1006865
:104AC00000F03800182873D047DCB8B3082879D034
:104AD00010286FD178E028287ED17BE0BD498A423A
:104AE00009D1006800F00700062875D2DFE800F061
:104AF000546A6C6E7072B8498A4209D1006800F03D
:104B00000700062868D2DFE800F0475D5F61636553
:104B1000B2498A4209D1006800F0070006285BD23A
:104B2000DFE800F03A5052545658AD498A420BD152
:104B3000006800F0070006284ED200E010E0DFE831
:104B400000F02B4143454749A6498A420AD10068F3
:104B500000F03800182839D0B7DD2028BBD13CE060
:104B600001203AE0A0498A4209D1006800F007001C
:104B7000062831D2DFE800F01026282A2C2E9B4987
:104B80008A420BD1006800F00700062824D2DFE833
:104B900000F003191B1D1F2100201EE09A421BD1AB
:104BA0008B48001D006800F00700062814D202E0C0
:104BB0000CE007E010E0DFE800F0030507090B0D4B
:104BC00002200AE0042008E0082006E0102004E0AB
:104BD000202002E0402000E080208549DFF8148298
:104BE0009A42854A4FF400434FEA21174FF00006DE
:104BF0004DD110281AD006DC022809D004280BD089
:104C000008287CD10DE020283DD0402877D13CE019
:104C1000FCF72EFE014610E06846FCF73BFE0199CA
:104C20000BE003A8FCF7D8FE049906E010688006A4
:104C300004D51068C0F3C100C140B9B3606A6768A9
:104C400038F8102007EB4703B1FBF2F0834256D847
:104C5000B0EB073F53D8002308461946FBF78CFBFF
:104C600002467808130E120243EA012110183A4650
:104C700071410023FBF780FB604AA0F5407191422F
:104C80003DD821684CE03946D8E71946D6E7D4F834
:104C90001CC04FF6EF799C4552D108281AD006DC8B
:104CA00060B101280DD0042829D10EE039E0102888
:104CB00015D0202840D040287CD13FE0FDF7E8FC0B
:104CC00001E0FDF7F7FC014610E06846FCF7E2FD65
:104CD00001990BE003A8FCF77FFE049906E0106839
:104CE000800604D51068C0F3C100C140C9B1636A31
:104CF000606838F81330B1FBF3F1490000E059E087
:104D000001EB5001B1FBF0F080B2A0F11001494578
:104D100050D84FF6F0732168C0F342021840104398
:104D2000C8600120A4F86A00A4F868002846266735
:104D3000666707B0BDE8F0833946D8E71946D6E77D
:104D4000082819D005DC58B101280CD0042831D12D
:104D50000DE0102815D020282ED040282AD12DE093
:104D6000FDF796FC01E0FDF7A5FC014610E0684662
:104D7000FCF790FD01990BE003A8FCF72DFE0499C8
:104D800006E01068800605D51068C0F3C100C14078
:104D90000029C6D0636A606838F81330B1FBF3F1BC
:104DA00001EB5001B1FBF0F080B2A0F110014945D8
:104DB0007FF667AF0125B4E73946EBE71946E9E727
:104DC000F369FFCF000C0058FFF4FF110010014001
:104DD000544402580044004000480040004C004049
:104DE000005000400014014000780040007C00406A
:104DF0000090D003FE56000800440258FFFC0F004C
:104E000070B58468002381654FF48056A0F85C205B
:104E1000B442A0F85E204FF0FF01036704D104699B
:104E2000DCB940F2FF1118E04FF07F059CB1B4F1FE
:104E3000805F15D0A0F860302221C0F88C30C0F817
:104E4000881001688C6844F001048C60416EB1F1F7
:104E5000005F0CD025E0046934B9A0F86010EBE7DE
:104E6000016909B13F21F8E7A0F86050E4E7B0F824
:104E70006810914215D88168B14201D1016971B1C0
:104E80001149016780F8803001680A6842F4807235
:104E90000A600068816841F0805181600FE00B4931
:104EA000EFE78168B14201D1016951B10849016759
:104EB00080F880300068016841F490710160002042
:104EC00070BD0449F3E700000D490008454700089C
:104ED0008D480008C5460008D0F88410212910D15B
:104EE000B0F8561071B1016D02680988C1F308016C
:104EF0009162016D891C0165B0F85610491EA0F839
:104F00005610704701680A6822F080020A60006843
:104F1000016841F04001016070470000D0F8841042
:104F200021291BD1B0F86A1016E000BFB0F8562056
:104F3000AAB10268D3691B060CD5036D1B88C3F3A5
:104F400008039362026D921C0265B0F85620521E4F
:104F5000A0F85620491E89B20029E7D170470168A0
:104F60008A6822F400028A600068016841F040010A
:104F700001607047D0F8841021290ED1B0F8561086
:104F800061B1016D026809789162016D491C01658A
:104F9000B0F85610491EA0F85610704701680A680C
:104FA00022F080020A600068016841F0400101605F
:104FB00070470000D0F88410212919D1B0F86A1088
:104FC00014E000BFB0F856209AB10268D3691B06FE
:104FD0000AD5036D1B789362026D521C0265B0F80E
:104FE0005620521EA0F85620491E89B20029E9D148
:104FF000704701688A6822F400028A6000680168CC
:1050000041F04001016070472DE9F0479A4617468C
:105010000E460446089D4FF000094FF0200839E085
:10502000681C37D0FCF76AFAA0EB0A00A84222D825
:105030000DB32068016849072CD5C069C04300053D
:1050400028D423684FF40061196221680B6823F4A7
:10505000D0730B6021688B6823F001038B60C4F868
:105060008480C4F88880C4F88C8000BF032084F852
:105070008090BDE8F08721680B6823F4D0730B6043
:1050800021688B6823F001038B60C4F88480C4F826
:105090008880EBE72068C06936EA000004D0002071
:1050A000B842BDD00020E4E70120F9E70148FEF74F
:1050B00067B900009401002470B5044606990A9E61
:1050C000049D01290D981DD0E06840F04000E0608B
:1050D000204600F035F8A16B5EB321F48031A16366
:1050E000012D0ED1E16D144A89B2E165E16D1143E4
:1050F000E165A16841F00601A160A16841F02001CD
:10510000A16070BDA26B01280C4922F48030A0631D
:10511000E06800EA0100E060E06820F44010E06030
:1051200003D1E06840F48010E060204600F008F809
:10513000D6E741F48031D2E70000EE03BFFFBDFFA8
:105140000C49012202E0521C8A420BD80369002B51
:10515000F9DA0369012243F00103036104E0521C00
:105160008A4201D9032070470369DB07F7D1002089
:1051700070470000400D0300D0F8001E21F003012D
:10518000C0F8001ED0F8041841F00201C0F804185D
:10519000002070472DE9F04F0E4604460021DDF84F
:1051A00024B00D46109F0846DDF82C2004EB800C3F
:1051B000CCF80411401C0F28F8D32046AFB1806B07
:1051C00040F4001CC4F838C088460846C4F8000EF5
:1051D000D4F80008012A2146C4F800081BD008466C
:1051E000D1F8001841F003011BE0D0F8040840F0AA
:1051F000020CC4F804C8A06B20F4001CC4F838C02A
:10520000206840F0400CC4F800C0206840F0800CDA
:10521000C4F800C0D8E70846D1F800180BB141F037
:105220000101C0F80018102100F086F800B1012536
:10523000204600F071F800B1012540464FF00069AA
:105240004FF67F334FF0904AC4F81088C4F81488A2
:10525000C4F81C88002114E004EB4112D2F800C904
:10526000BCF1000F06DA11B1C2F800A904E0C4F8DD
:10527000009901E0C2F80009C2F81009C2F8083923
:10528000491C8E42E8D8002115E000BF04EB411212
:10529000D2F800CBBCF1000F06DA11B1C2F800ABB6
:1052A00004E0C4F8009B01E0C2F8000BC2F8100B48
:1052B000C2F8083B491C8E42E8D8D4F81038BBF13C
:1052C000000F6FF0804223F48073C4F81038A0619F
:1052D000626103D1A06940F01000A061A069094A91
:1052E0000C9940EA0200A06119B1A06940F00800E1
:1052F000A061012F03D1A06903490843A06128469A
:10530000BDE8F08F00383C8004000040816821F047
:105310000101816000207047064A102101610021CF
:10532000491C914201D9032070470369DB06F7D479
:1053300000207047400D03002023074A43EA8113F1
:1053400003610021491C914201D903207047036980
:105350009B06F7D400207047400D030010B5C268CB
:10536000012922F0C042C26002D029B1012010BD43
:10537000C16841F0005102E0C16841F08041C16064
:105380003220FBF7A7FD002010BDFEE7090700282B
:105390004FEA116104DB00F1E02080F8001470474F
:1053A00000F00F0000F1E02080F8141D7047302855
:1053B00013D0312813D0322813D0332813D03428F7
:1053C00013D0352813D0362813D0372813D03828D7
:1053D00013D0392800D109207047002070470120E0
:1053E0007047022070470320704704207047052053
:1053F000704706207047072070470820704700005C
:105400003D4B10B53D491869002801DD302200E010
:1054100031220A7078224A70394A90FBF2F0002853
:1054200000DA40420A2290FBF2F402FB140000F082
:105430006DF8887033481C6994FBF0F090FBF2F42F
:1054400002FB1400002800DA404200F05FF8C87048
:105450002D481C6994FBF0F090FBF2F402FB140061
:10546000002800DA404200F051F8087142F2107052
:105470001C6994FBF0F090FBF2F402FB140000288E
:1054800000DA404200F042F848714FF47A701C692B
:1054900094FBF0F090FBF2F402FB1400002800DA19
:1054A000404200F033F8887164201C6994FBF0F0EE
:1054B00090FBF2F402FB1400002800DA404200F0F6
:1054C00025F8C871186990FBF2F090FBF2F402FB2A
:1054D0001400002800DA404200F018F80872186939
:1054E00090FBF2F302FB1300002800DA404200F0C8
:1054F0000DF8487210BD0000000000242C060024A6
:105500008096980040420F00A086010098B10128C3
:1055100013D0022813D0032813D0042813D0052851
:1055200013D0062813D0072813D0082813D0092831
:1055300000D1392070473020704731207047322029
:10554000704733207047342070473520704736202D
:105550007047372070473820704700002DED068BCC
:10556000FBF7DAFFFEF7DEFCFEF7C0F9FEF788F97D
:10557000FEF7C8FAFEF712FBFEF75CFBFEF78CFBAA
:105580004F4908224F48FEF7FBF84E480021983853
:10559000FDF7FEFD4B4800214C38FDF7F9FD642076
:1055A000FBF798FC9FED489B9FED49AB4A4E4FF4AB
:1055B0008059434D4FF4804BDFF820A19FED488A7E
:1055C000484FA5F12204DFF8208108223C493D48DC
:1055D000FEF7D6F8A878FFF7EAFE64214143E878A1
:1055E000FFF7E5FE00EB800001EB40012879FFF7B3
:1055F000DEFE084400EE100AA879B8EEC01BFFF7E3
:10560000D6FE00EE100AE879B8EEC00B00EE091BDA
:10561000FFF7CDFE00EE100AB8EEC00B00EE0A1B3D
:10562000B7EEC10B10EE100A84ED060AB04203DD9E
:105630009FED2E0A84ED060A287830282CD0012010
:10564000206002462A485946FBF74DFF0022494692
:105650005046FBF748FF84ED018A94ED060A84ED7D
:10566000020A00BF94ED010ABCEEC00A10EE100A57
:10567000386094ED020ABCEEC00A10EE100AC8F8B9
:10568000000000210F489838FDF782FD0D480021E9
:105690004C38FDF77DFD98E7002049460122206047
:1056A0005046FBF720FF124800225946FBF71BFF2C
:1056B00094ED060A84ED010A84ED028AD2E7000027
:1056C00022000024940100249A9999999999B93F4C
:1056D0007B14AE47E17A843F0000C84200180258AC
:1056E0000000000034040040340800400000C842BC
:1056F000001002584FF04070E1EE100A70470100B0
:1057000002000400060008000A000C00100020003F
:1057100040008000000101010103070100000804AE
:10572000020408010101000000000102030401025B
:105730000304060708090000585700080000002469
:1057400040000000D40200089857000840000024E0
:10575000580C0000F00200080000000000000000EB
:105760000000000000000000000000000000000039
:105770000000000000000000000000000000000029
:105780000000000001000000100000000000000008
:085790000090D0030090D0034B
:040000050800029954
:00000001FF
